:020000040800F2
:10000000B1AA010000000000000000000000000094
:1000100000000000000000000000000000000000E0
:1000200000000000000000000000000000000000D0
:1000300000000000000000000000000000000000C0
:1000400000000000000000000000000000000000B0
:1000500000000000000000000000000000000000A0
:100060000000000000000000000000000000000090
:100070000000000000000000000000000000000080
:100080000000000000000000000000000000000070
:100090000000000000000000000000000000000060
:1000A0000000000000000000000000000000000050
:1000B0000000000000000000000000000000000040
:1000C0000000000000000000000000000000000030
:1000D0000000000000000000000000000000000020
:1000E0008E05000890050008920500080000000039
:1000F0000000000000000000000000000000000000
:1001000000000000000000000000000000000000EF
:1001100000000000000000000000000000000000DF
:1001200000000000000000000000000000000000CF
:1001300000000000000000000000000000000000BF
:1001400000000000000000000000000000000000AF
:100150000000000000000000000000007370043088
:10016000170500001305C5FF8545F605637BB5003F
:1001700089816378B500170500001305C5002E9529
:1001800002859302002073A0027D970200009382F3
:1001900062E773907230970200009382E266739078
:1001A000C27E73E0C07E970200009382A25D7390CE
:1001B0005230970100189381E16A178100181301EA
:1001C00061E4171500001305A58F970500189385A6
:1001D00065E317060018130626F163FAC5008322AB
:1001E000050023A0550011059105E3EAC5FE17059A
:1001F0000018130565EF97050018938525F86377B8
:10020000B500232005001105E36DB5FE73F0023241
:10021000170500001305C56A97000000E780E06538
:1002200097000000E780406D014581459700000080
:10023000E780804E97000000E780C00517030000AC
:100240006700A36401A073E00232828073F002327F
:0402500082800000A8
:10028000E0000000E4000000E80000001C010000A5
:10029000B7070020411193878706D84322C437044B
:1002A00000204AC01309040606C626C22322F9000C
:1002B00013050406029783274900814513050406A8
:1002C0009C47B70400209384840D829783274900BC
:1002D000814513050406DC478297DC401305401F67
:1002E000829783274900130504068545DC478297DA
:1002F000DC401305401F8297D1BF970700F8938712
:1003000067D089CB170500001305855B1703000034
:100310006700A3568280828082808280828001452D
:1003200082800145828003560500371502400C4D3E
:1003300093575600054793862700B316D700CD8EF6
:10034000B705100093852504AE9714CDAA077D8AC2
:1003500003A8070013132600BD4683A84700B396E1
:10036000660093C6F6FF33F5060113DEF64188C337
:10037000B3751E01CCC303A807008D4683A84700B0
:10038000B396660033E5060113D3F64188C3B3651F
:100390001301CCC3D4473317C7001347F7FF758F3A
:1003A000D8C7828003570500B7061000938626043D
:1003B00093575700B697AA079376F70103A3070050
:1003C000139626003D4783A347003317C700134702
:1003D000F7FF135EF74133786700B3787E0023A000
:1003E000070123A2170195E103A307000D4783A38B
:1003F00047003317C7001356F74133686700B368E7
:10040000760023A0070123A21701034725001377D5
:10041000070419C7D04705473317D700518FD8C7EE
:10042000828003560500B71601409386C680935715
:100430005600AA07B697884305473317C700934667
:10044000F7FFE98E94C381C59443558F98C382808A
:1004500083570500371701401307C7809583AA0704
:10046000BA97884382808280411102C4A24763F315
:10047000A702254702C6B2476368F700B24785075F
:100480003EC6B247E37CF7FEA24785073EC4A247BB
:10049000E3E2A7FE410182807D567D159306703E02
:1004A0002547630CC502411102C4A24763E2F6026C
:1004B00002C6B2476368F700B24785073EC6B24737
:1004C000E37CF7FEA24785073EC4A247E3F2F6FEAF
:1004D0007D15E31BC5FC41018280828015C5411159
:1004E00022C426C206C61304F5FFFD547D1413056D
:1004F000803E97000000E78060FAE31994FEB24066
:100500002244924441018280828082808280828063
:100510004CC53E858280411122C42A841305E060C7
:1005200006C697000000E7800022130520609700B0
:100530000000E78040218347040095C311477D55A3
:10054000636BF700B7160240D04EC1070547B317DB
:10055000F700D18FDCCEB2402244410182803717B0
:1005600002401C4F9166B240D58F1CCF83470400D8
:10057000014513972700B707000893870728BA9704
:100580009C431CC8224441018280014582808280B4
:100590008280828082808280828082800145828007
:1005A000014582800145828001458280411106C655
:1005B00097000000E78080FFB24001454101828042
:1005C000B71702409843B706FFE0B106136717005C
:1005D00098C3D8433706F7EA7D16758FD8C398437A
:1005E000B706F7FEFD16758F98C39843B706FCFF54
:1005F000FD16758F98C3D843B70601DFFD16758FBA
:10060000D8C323A6070294433707FF00C165F18EC4
:1006100094C398C798439386F5FF371602404D8FD1
:1006200098C311A099C61C42FD161397E700E35B1F
:1006300007FEB717024098439316E70063D0060AF7
:10064000D8433706C4DF7D16D8C3D843B716024057
:10065000D8C3D84313670740D8C3D843718FD8C3D2
:10066000D84337062920518FD8C3D8573D76718F8C
:10067000D8D7D8574166130616F1518FD8D798436B
:1006800037060004518F98C39C4213974700E35DDF
:1006900007FE9C423706001037170240D18F9CC2DC
:1006A0001C4393962700E3DD06FE14433706000142
:1006B000B7170240D18E14C3984393166700E3DD49
:1006C00006FED843B7160240719BD8C3D8431367C0
:1006D0002700D8C3DC42A18BF5DF828001A0370759
:1006E00000D2230007001205B71700D2A3050700A8
:1006F0003E9563F7A70023A00700C107E3EDA7FE1F
:100700008280F327503093F707FC93E7370073900C
:1007100057308280411106C697000000E78080EACA
:100720001305700597000000E780A0FB970000000C
:10073000E78060FDB2404101170300006700E3B0AD
:100740008280B7170240135765003E9714438547D0
:10075000B397A700D58F1CC3828000000000000063
:100760000000000000000000000000000000000089
:100770000000000000000000000000000000000079
:100780005D7106C012C216C41AC61EC82ACA2ECC73
:1007900032CE36D03AD23ED442D646D872DA76DC61
:1007A0007ADEFEC0F322103496C0F322003096C2E7
:1007B000F322407C96C4732520348A85970000007C
:1007C000E78000DF864273901234964273900230C5
:1007D000A6427390427C82401242A2423243C243FC
:1007E0005245E245724682561257A2573258C258B5
:1007F000525EE25E725F864F6161730020300000DE
:10080000000000005D7106C012C216C41AC61EC8E0
:100810002ACA2ECC32CE36D03AD23ED442D646D890
:1008200072DA76DC7ADEFEC073D0E87E7350F97E31
:1008300073D0B97EF390D07E73700430B64273905B
:10084000427CA642739012349642739022348240C6
:100850001242A2423243C2435245E2457246825698
:100860001257A2573258C258525EE25E725F864FEC
:10087000616173002030AA85814601460145170356
:1008800000006700030E411122C406C6970700004E
:100890009387E7152A8491C7814597000000E78078
:1008A0000015970700009387272188431C5591C3A3
:1008B0008297228597000000E780E01F411197078B
:1008C00000009387E71F22C4170400001304441F8D
:1008D0001D8C26C206C60984BE8411E4B24022449F
:1008E0009244410182807D1493172400A6979C4373
:1008F0008297E5B74111970700009387271C22C410
:10090000170400001304841B1D8C26C24AC006C6AF
:10091000098481443E896396840297070000938787
:10092000E719170400001304A4191D8C09848144DD
:100930003E89639F8400B2402244924402494101AF
:10094000828093972400CA979C4385048297E1B7DD
:1009500093972400CA979C4385048297D9BF97F741
:10096000FF17938767789C432A8E8DE717F7FF1749
:100970001307C77797F7FF1723A8E77617F5FFF751
:1009800013054568BA8719C51C4117F5FF172323BE
:10099000F57EBA87D8437D487D556347E804630EEA
:1009A0000E0203A887086301080493182700C29861
:1009B00023A0C8000323081005463316E60033635E
:1009C000C3002320681023A0D80889466317DE00DF
:1009D00083264810558E2322C810930617000A0755
:1009E000D4C3BA978CC701458280797152CC56CA5C
:1009F0005AC85EC606D622D426D24AD04ECE62C48B
:100A00002A8B2E8A97FAFF17938A0A6E854B03A4C6
:100A10000A0011C84440832984081389F4FF8A041A
:100A2000A294635E0900B250225492540259F249D2
:100A3000624AD24A424BB24B224C45618280630EDD
:100A40000A00639509007D19F114E1BF931729008D
:100A5000CE9783A70708E39847FF5840DC407D17EF
:100A60006318270323222401F9DF032C4400638841
:100A7000090083A6091033972B01F98E89EE82971E
:100A8000584083A70A00E31487F9E30EF4FA41B74C
:100A900023A20400D1BF93162900CE968C4283A6D0
:100AA0004910758F01E75A858297D9BF2E858297A5
:040AB000C1BF01A021
:040AB400000000201E
:040AB800FA02000836
:100ABC00000000000000000000000000000000002A
:100ACC00000000000000000000000000000000001A
:100ADC00000000000000000000000000000000000A
:100AEC0000000000000000000000000000000000FA
:100AFC0000000000000000000000000000000000EA
:100B0C0000000000000000000000000000000000D9
:100B1C000200400000000000000000002603000856
:100B2C00A40300082204000850040008660400080E
:100B3C000000000016030008220300081C03000834
:100B4C00180300081E0300081A0300080000000028
:100B5C0094050008A40500089A05000896050008ED
:100B6C00A0050008980500089C050008000000007E
:100B7C00160500080A0500080C0500080E050008FB
:100B8C008A0500081005000868040008980400088D
:040B9C00DC0400086D
:040000050800015C92
:00000001FF
