:020000040800F2
:10000000B1AA010000000000000000000000000094
:1000100000000000000000000000000000000000E0
:1000200000000000000000000000000000000000D0
:1000300000000000000000000000000000000000C0
:1000400000000000000000000000000000000000B0
:1000500000000000000000000000000000000000A0
:100060000000000000000000000000000000000090
:100070000000000000000000000000000000000080
:100080000000000000000000000000000000000070
:100090000000000000000000000000000000000060
:1000A0000000000000000000000000000000000050
:1000B0000000000000000000000000000000000040
:1000C0000000000000000000000000000000000030
:1000D0000000000000000000000000000000000020
:1000E000F8070008020800080C08000800000000DB
:1000F0000000000000000000000000000000000000
:1001000000000000000000000000000000000000EF
:1001100000000000000000000000000000000000DF
:1001200000000000000000000000000000000000CF
:1001300000000000000000000000000000000000BF
:1001400000000000000000000000000000000000AF
:100150000000000000000000000000007370043088
:10016000170500001305C5FF8545F605637BB5003F
:1001700089816378B500170500001305C5002E9529
:1001800002859302002073A0027D970200009382F3
:1001900062E773907230971200009382E2CA739004
:1001A000C27E73E0C07E971200009382A2C173905A
:1001B0005230970100189381E16B178100181301E9
:1001C00061E4171500001305A5F397050018938542
:1001D00065E317060018130626F263FAC5008322AA
:1001E000050023A0550011059105E3EAC5FE17059A
:1001F0000018130565F097050018938525FA6377B5
:10020000B500232005001105E36DB5FE73F0023241
:10021000171500001305C5CE97100000E780E0C950
:1002200097100000E78040D101458145970000000C
:10023000E780A07697000000E780400817130000D1
:100240006700A3C801A073E00232828073F002321B
:0402500082800000A8
:10028000CA050008E0050008F6050008A2050008F8
:10029000B805000876060008C0060008EE0600084B
:1002A000360600085806000868656C6C6F205164BB
:1002B0007269766572000000B7070020011193870C
:1002C0008707D84322CC370400204AC81309040703
:1002D00006CE26CA4EC652C456C22322F9001305C2
:1002E00004070297832749008145130504079C47AB
:1002F000B7090020138A09008297B7070020938767
:10030000C70CD843138509002324FA00B704002042
:1003100002979384840EB70A000883274900814519
:1003200013050407DC478297DC401305401F8297C2
:1003300083274900854513050407DC478297DC4085
:100340001305401F829783278A003D4693858A2A9A
:10035000DC4B138509008297C9B7970700F893878C
:1003600067CA89CB17150000130585B9171300005C
:100370006700A3B48280828082808280828001456F
:1003800082800145828003560500371502400C4DDE
:1003900093575600054793862700B316D700CD8E96
:1003A000B705100093852504AE9714CDAA077D8A62
:1003B00003A8070013132600BD4683A84700B39681
:1003C000660093C6F6FF33F5060113DEF64188C3D7
:1003D000B3751E01CCC303A807008D4683A8470050
:1003E000B396660033E5060113D3F64188C3B365BF
:1003F0001301CCC3D4473317C7001347F7FF758FDA
:10040000D8C7828003570500B706100093862604DC
:1004100093575700B697AA079376F70103A30700EF
:10042000139626003D4783A347003317C7001347A1
:10043000F7FF135EF74133786700B3787E0023A09F
:10044000070123A2170195E103A307000D4783A32A
:1004500047003317C7001356F74133686700B36886
:10046000760023A0070123A2170103472500137775
:10047000070419C7D04705473317D700518FD8C78E
:10048000828003560500B71601409386C6809357B5
:100490005600AA07B697884305473317C700934607
:1004A000F7FFE98E94C381C59443558F98C382802A
:1004B00083570500371701401307C7809583AA07A4
:1004C000BA97884382808280411102C4A24763F3B5
:1004D000A702254702C6B2476368F700B2478507FF
:1004E0003EC6B247E37CF7FEA24785073EC4A2475B
:1004F000E3E2A7FE410182807D567D159306703EA2
:100500002547630CC502411102C4A24763E2F6020B
:1005100002C6B2476368F700B24785073EC6B247D6
:10052000E37CF7FEA24785073EC4A247E3F2F6FE4E
:100530007D15E31BC5FC41018280828015C54111F8
:1005400022C426C206C61304F5FFFD547D1413050C
:10055000803E97000000E78060FAE31994FEB24005
:10056000224492444101828082808280828083473B
:10057000050013972700B70700209387870FBA97C6
:100580008CC382808347050011476361F7083707F2
:1005900000088A0713070728BA979C43411106C62B
:1005A000828737550040130505C097000000E7809B
:1005B000C066B2404101828037550040970000007C
:1005C000E780A065B24041018280374501401305B4
:1005D000058097000000E7804064B24041018280BE
:1005E000374500401305054097000000E780E062B2
:1005F000B2404101828037550040130505809700C5
:100600000000E7808061B2404101828082808347A0
:1006100005001147636EF70E370700088A071307B6
:100620004729BA979C43797126D206D622D44AD05C
:100630004ECEB284828737550040930510041305CF
:1006400005C097000000E7800069B2502254925420
:100650000259F249456182803755004093051004E4
:1006600097000000E7802067B2502254925402594C
:10067000F2494561828002C6B247E3F8C7FC3749B8
:1006800001402E84B7090020130909808345040026
:100690004A85050497000000E780E06383A7890E80
:1006A0001305803E8297B24785073EC6B247E3EF07
:1006B00097FCB250225492540259F249456182800B
:1006C0003749004001441309094041D2050493050C
:1006D00010044A8597000000E780E05FE31894FE6D
:1006E000B250225492540259F249456182803755E2
:1006F0000040130505809305100497000000E78073
:10070000805DB250225492540259F2494561828070
:1007100082808347050085C311477D55636CF700D0
:10072000B7160240D04E0547C107B317F700D18F67
:10073000DCCE8280828037180240832788011167CF
:100740004111150706C6D98F22C426C2B71401402D
:10075000232CF8002A849306002013850480054684
:10076000E14597000000E78080579306004005466A
:1007700091451385048097000000E7804056B744F8
:1007800001401385048097000000E780603C13055A
:10079000006097000000E78020234C401385048010
:1007A00097000000E780604713850480814597002B
:1007B0000000E780C04D138504808145970000004C
:1007C000E780E04D13850480814597000000E780B5
:1007D000204E13850480A14597000000E780004F5C
:1007E0001385048097000000E780A04DB2402244AA
:1007F0009244014541018280B707002003A3870F7F
:100800000283B707002003A3C70F0283B7070020A6
:1008100003A3071002838280828082808280014548
:10082000828001458280014582800145828041119C
:1008300006C697000000E78080FFB24001454101F5
:100840008280B71702409843B706FFE0B1061367EE
:10085000170098C3D8433706F7EA7D16758FD8C3BB
:100860009843B706F7FEFD16758F98C39843B706F1
:10087000FCFFFD16758F98C3D843B70601DFFD1640
:10088000758FD8C323A6070294433707FF00C165BD
:10089000F18E94C398C798439386F5FF37160240AC
:1008A0004D8F98C311A099C61C42FD161397E700FF
:1008B000E35B07FEB717024098439316E70063D047
:1008C000060AD8433706C4DF7D16D8C3D843B71607
:1008D0000240D8C3D84313670740D8C3D843718FA9
:1008E000D8C3D84337062920518FD8C3D8573D766F
:1008F000718FD8D7D8574166130616F1518FD8D7C4
:10090000984337060004518F98C39C4213974700C1
:10091000E35D07FE9C423706001037170240D18F77
:100920009CC21C4393962700E3DD06FE1443370662
:100930000001B7170240D18E14C398439316670085
:10094000E3DD06FED843B7160240719BD8C3D843F7
:1009500013672700D8C3DC42A18BF5DF828001A09A
:10096000370700D2230007001205B71700D2A305EE
:1009700007003E9563F7A70023A00700C107E3ED3A
:10098000A7FE8280F327503093F707FC93E73700E8
:10099000739057308280411106C697000000E780AF
:1009A00080EA1305700597000000E780A0FB970020
:1009B0000000E78060FDB2404101170300006700BE
:1009C000C3888280B7170240135765003E971443CF
:1009D0008547B397A700D58F1CC38280B717024005
:1009E000135765003E9714438547B397A700D58FEB
:1009F0001CC38280B7170240135765003E9714430B
:100A00008547B397A70093C7F7FFF58F1CC3828074
:100A1000B707030437070809011193871720130745
:100A200067703ECC3EC23EC602C802CA3ACE02C081
:100A300002C4B7160240D842B7177A0009460983A4
:100A40000D8B93870720630DC7043717024050436F
:100A50005443584311820C103D8A2E96034606FFDC
:100A6000A1822D839D8A1D8B2E97AE96054833D685
:100A7000C70083C506FE034787FE6301050B11CD42
:100A80008946B357B600630AD500751513351500AE
:100A9000B357E6003305A040E98F3E8505618280AB
:100AA000D8421316F700635F0606D8561316F700F0
:100AB00063580602D856DC56454693564700A18334
:100AC000BD8BBD8A1387270085066313C700514776
:100AD000B7177A0093870720B3D7D702B387E70207
:100AE000371702405857B71602403D8B0507B3D75A
:100AF000E702D842D4424983139626003D8B6341D6
:100B00000604BD466300D7040907631ED702139786
:100B100017003E9706078583BA9705BFB2873E85C3
:100B200005618280B7160240D842D442B7173D0013
:100B3000498313962600938707903D8BE35306FC69
:100B4000136707010507B307F70201B74111B7574C
:100B5000004006C6138707C06302E5066378A70254
:100B6000630CF506B7470140938707806314F508C7
:100B70001305E03097000000E78080E6B2401305DF
:100B8000E030410117030000670003E737470040EA
:100B9000130707406303E50693870780631CF5048A
:100BA0001305204197000000E78080E3B240130561
:100BB0002041410117030000670003E413053041A1
:100BC00097000000E780C0E1B240130530414101C9
:100BD00017030000670043E213054041970000003F
:100BE000E78000E0B24013054041410117030000D7
:100BF000670083E0B24041018280130510419700F5
:100C00000000E780E0DDB240130510414101170309
:100C10000000670063DE41113757004022C426C23E
:100C200006C6930707C02A84AE84630AF50463FDF1
:100C3000A7026306E5043747014013070780014513
:100C40006317E4000D4597000000E780A0DC93D710
:100C50001400AA97B3D79702B2409244C207C18347
:100C60001CC4224441018280B7460040938606405E
:100C70006307D500130707800145E31AE4FC094523
:100C800097000000E78000D9D9B75C4593F7F79F3C
:100C90005CC55C45DD8D4CC582805C457D777D17EC
:100CA000F98F5CC55C45DD8D4CC582801C4975772C
:100CB0007D17F98F1CC91C49DD8D0CC982805C45EC
:100CC0000967D98F5CC582805C45DD9BDD8D4CC595
:100CD000828093F5F51F4CC1828093F7050193F84C
:100CE000F50099C3B3E8C8008147854E3D4E930F88
:100CF0008002930280042143139627003397FE005D
:100D00003318CE00758F1348F8FF3396C80001CF13
:100D1000032F05003378E80133660601638FF5057C
:100D20006389550410C18507E39867FC854E3D4EE5
:100D3000930F800293028004414313972700011709
:100D40003396FE003318EE00758E1348F8FF339784
:100D5000E80001CE032F45003378E801336707012F
:100D6000638FF5016389550058C18507E39767FCD8
:100D7000828018C945BF10C9C5BF58C965B750C9D9
:100D8000E5B70000000000000000000000000000C7
:100D90000000000000000000000000000000000053
:100DA0000000000000000000000000000000000043
:100DB0000000000000000000000000000000000033
:100DC0005D7106C012C216C41AC61EC82ACA2ECC2D
:100DD00032CE36D03AD23ED442D646D872DA76DC1B
:100DE0007ADEFEC0F322103496C0F322003096C2A1
:100DF000F322407C96C4732520348A859700000036
:100E0000E78020A38642739012349642739002309A
:100E1000A6427390427C82401242A2423243C243B5
:100E20005245E245724682561257A2573258C2586E
:100E3000525EE25E725F864F616173002030000097
:100E4000000000005D7106C012C216C41AC61EC89A
:100E50002ACA2ECC32CE36D03AD23ED442D646D84A
:100E600072DA76DC7ADEFEC073D0E87E7350F97EEB
:100E700073D0B97EF390D07E73700430B642739015
:100E8000427CA64273901234964273902234824080
:100E90001242A2423243C2435245E2457246825652
:100EA0001257A2573258C258525EE25E725F864FA6
:100EB000616173002030AA85814601460145170310
:100EC00000006700030E411122C406C69707000008
:100ED0009387E7152A8491C7814597000000E78032
:100EE0000015970700009387272188431C5591C35D
:100EF0008297228597000000E780E01F4111970745
:100F000000009387E71F22C4170400001304441F46
:100F10001D8C26C206C60984BE8411E4B240224458
:100F20009244410182807D1493172400A6979C432C
:100F30008297E5B74111970700009387271C22C4C9
:100F4000170400001304841B1D8C26C24AC006C669
:100F5000098481443E896396840297070000938741
:100F6000E719170400001304A4191D8C0984814497
:100F70003E89639F8400B240224492440249410169
:100F8000828093972400CA979C4385048297E1B797
:100F900093972400CA979C4385048297D9BF97F7FB
:100FA000FF17938767159C432A8E8DE717F7FF1766
:100FB0001307C71597F7FF1723A0E71417F5FFF7D7
:100FC00013054504BA8719C51C4117F5FF172323DC
:100FD000F51CBA87D8437D487D556347E804630E06
:100FE0000E0203A887086301080493182700C2981B
:100FF00023A0C8000323081005463316E600336318
:10100000C3002320681023A0D80889466317DE0098
:1010100083264810558E2322C810930617000A070E
:10102000D4C3BA978CC701458280797152CC56CA15
:101030005AC85EC606D622D426D24AD04ECE62C444
:101040002A8B2E8A97FAFF17938A0A0B854B03A4E3
:101050000A0011C84440832984081389F4FF8A04D4
:10106000A294635E0900B250225492540259F2498C
:10107000624AD24A424BB24B224C45618280630E97
:101080000A00639509007D19F114E1BF9317290047
:10109000CE9783A70708E39847FF5840DC407D17A9
:1010A0006318270323222401F9DF032C44006388FB
:1010B000090083A6091033972B01F98E89EE8297D8
:1010C000584083A70A00E31487F9E30EF4FA41B706
:1010D00023A20400D1BF93162900CE968C4283A68A
:1010E0004910758F01E75A858297D9BF2E8582975F
:0410F000C1BF01A0DB
:0410F4000C000020CC
:0410F8005A0300088F
:1010FC000000000000C20100000000000000000021
:10110C0000000000000000000000000000000000D3
:10111C0000000000000000000000000000000000C3
:10112C0000000000000000000000000000000000B3
:10113C0000000000000000000000000000000000A3
:10114C000000000000000000000000000000000093
:10115C000000000000000000000000000000000083
:10116C0002004000000000000000000086030008A0
:10117C000404000882040008B0040008C604000837
:10118C000000000076030008820300087C030008BE
:10119C00780300087E0300087A03000800000000B2
:1011AC0016080008260800081C0800081808000883
:1011BC00220800081A0800081E0800080000000099
:1011CC00120700086A050008840500086C05000871
:1011DC000E0600086E050008C8040008F804000894
:0411EC003C050008B6
:040000050800015C92
:00000001FF
