:020000040800F2
:10000000B1AA010000000000000000000000000094
:1000100000000000000000000000000000000000E0
:1000200000000000000000000000000000000000D0
:1000300000000000000000000000000000000000C0
:1000400000000000000000000000000000000000B0
:1000500000000000000000000000000000000000A0
:100060000000000000000000000000000000000090
:100070000000000000000000000000000000000080
:100080000000000000000000000000000000000070
:100090000000000000000000000000000000000060
:1000A0000000000000000000000000000000000050
:1000B0000000000000000000000000000000000040
:1000C0000000000000000000000000000000000030
:1000D0000000000000000000000000000000000020
:1000E0000000000000000000000000000000000010
:1000F0000000000000000000000000000000000000
:1001000000000000000000000000000000000000EF
:1001100000000000000000000000000000000000DF
:1001200000000000000000000000000000000000CF
:1001300000000000000000000000000000000000BF
:1001400000000000000000000000000000000000AF
:100150000000000000000000000000007370043088
:10016000170500001305C5FF8545F605637BB5003F
:1001700089816378B500170500001305C5002E9529
:1001800002859302002073A0027D970200009382F3
:1001900062E773907230970200009382E2327390AC
:1001A000C27E73E0C07E970200009382A229739002
:1001B0005230970100189381E16A178100181301EA
:1001C00061E4170500001305A55B970500189385EA
:1001D00065E3170600181306E6E863FAC5008322F4
:1001E000050023A0550011059105E3EAC5FE17059A
:1001F0000018130525E7970500189385A5EF637789
:10020000B500232005001105E36DB5FE73F0023241
:10021000170500001305C53697000000E780E031A0
:1002200097000000E78040390145814597000000B4
:10023000E780001E97000000E780C004170300005D
:100240006700A33001A073E00232828073F00232B3
:0402500082800000A8
:1002800001458280970700F89387C7D789CB170568
:1002900000001305E52E170300006700032A828083
:1002A00001458280411106C697000000E78080FF6B
:1002B000B240014541018280B71702409843B7061A
:1002C000FFE0B1061367170098C3D8433706F7EA73
:1002D0007D16758FD8C39843B706F7FEFD16758F48
:1002E00098C39843B706FCFFFD16758F98C3D84393
:1002F000B70601DFFD16758FD8C323A60702944306
:100300003707FF00C165F18E94C398C79843938661
:10031000F5FF371602404D8F98C311A099C61C42B5
:10032000FD161397E700E35B07FEB71702409843FB
:100330009316E70063D0060AD8433706C4DF7D165C
:10034000D8C3D843B7160240D8C3D8431367074071
:10035000D8C3D843718FD8C3D84337062920518FCB
:10036000D8C3D8573D76718FD8D7D8574166130672
:1003700016F1518FD8D7984337060004518F98C390
:100380009C4213974700E35D07FE9C42370600102E
:1003900037170240D18F9CC21C4393962700E3DDA0
:1003A00006FE144337060001B7170240D18E14C36E
:1003B000984393166700E3DD06FED843B716024064
:1003C000719BD8C3D84313672700D8C3DC42A18BE5
:1003D000F5DF828001A0370700D223000700120555
:1003E000B71700D2A30507003E9563F7A70023A027
:1003F0000700C107E3EDA7FE8280F327503093F793
:1004000007FC93E73700739057308280411106C68E
:1004100097000000E78080EA130570059700000050
:10042000E780A0FB97000000E78060FDB24041013B
:1004300017030000670063E18280000000000000F5
:100440005D7106C012C216C41AC61EC82ACA2ECCB6
:1004500032CE36D03AD23ED442D646D872DA76DCA4
:100460007ADEFEC0F322103496C0F322003096C22A
:10047000F322407C96C4732520348A8597000000BF
:10048000E78080E286427390123496427390023085
:10049000A6427390427C82401242A2423243C2433F
:1004A0005245E245724682561257A2573258C258F8
:1004B000525EE25E725F864F616173002030000021
:1004C000000000005D7106C012C216C41AC61EC824
:1004D0002ACA2ECC32CE36D03AD23ED442D646D8D4
:1004E00072DA76DC7ADEFEC073D0E87E7350F97E75
:1004F00073D0B97EF390D07E73700430B64273909F
:10050000427CA64273901234964273902234824009
:100510001242A2423243C2435245E24572468256DB
:100520001257A2573258C258525EE25E725F864F2F
:10053000616173002030AA85814601460145170399
:1005400000006700030E411122C406C69707000091
:100550009387E7152A8491C7814597000000E780BB
:100560000015970700009387272188431C5591C3E6
:100570008297228597000000E780E01F41119707CE
:1005800000009387E71F22C4170400001304441FD0
:100590001D8C26C206C60984BE8411E4B2402244E2
:1005A0009244410182807D1493172400A6979C43B6
:1005B0008297E5B74111970700009387271C22C453
:1005C000170400001304841B1D8C26C24AC006C6F3
:1005D000098481443E8963968402970700009387CB
:1005E000E719170400001304A4191D8C0984814421
:1005F0003E89639F8400B2402244924402494101F3
:10060000828093972400CA979C4385048297E1B720
:1006100093972400CA979C4385048297D9BF970774
:100620000018938727A49C432A8E8DE7170700188C
:10063000130787A39707001823A6E7A2170500F85A
:100640001305459CBA8719C51C41170500182321BD
:10065000F5AABA87D8437D487D556347E804630E01
:100660000E0203A887086301080493182700C298A4
:1006700023A0C8000323081005463316E6003363A1
:10068000C3002320681023A0D80889466317DE0022
:1006900083264810558E2322C810930617000A0798
:1006A000D4C3BA978CC701458280797152CC56CA9F
:1006B0005AC85EC606D622D426D24AD04ECE62C4CE
:1006C0002A8B2E8A970A0018938ACA99854B03A40D
:1006D0000A0011C84440832984081389F4FF8A045E
:1006E000A294635E0900B250225492540259F24916
:1006F000624AD24A424BB24B224C45618280630E21
:100700000A00639509007D19F114E1BF93172900D0
:10071000CE9783A70708E39847FF5840DC407D1732
:100720006318270323222401F9DF032C4400638884
:10073000090083A6091033972B01F98E89EE829761
:10074000584083A70A00E31487F9E30EF4FA41B78F
:1007500023A20400D1BF93162900CE968C4283A613
:100760004910758F01E75A858297D9BF2E858297E8
:04077000C1BF01A064
:040774000000002061
:0407780084020008EF
:10077C00000000000000000000000000000000006D
:10078C00000000000000000000000000000000005D
:10079C00000000000000000000000000000000004D
:1007AC00000000000000000000000000000000003D
:1007BC00000000000000000000000000000000002D
:1007CC00000000000000000000000000000000001D
:040000050800015C92
:00000001FF
